{
  "_format": "hh-sol-artifact-1",
  "contractName": "TransactionLedger",
  "sourceName": "contracts/TransactionLedger.sol",
  "abi": [
    {
      "anonymous": false,
      "inputs": [
        {
          "indexed": true,
          "internalType": "string",
          "name": "transactionId",
          "type": "string"
        },
        {
          "indexed": true,
          "internalType": "address",
          "name": "verifier",
          "type": "address"
        },
        {
          "indexed": false,
          "internalType": "uint256",
          "name": "amount",
          "type": "uint256"
        },
        {
          "indexed": false,
          "internalType": "uint256",
          "name": "timestamp",
          "type": "uint256"
        }
      ],
      "name": "TransactionLogged",
      "type": "event"
    },
    {
      "inputs": [
        {
          "internalType": "string",
          "name": "_transactionId",
          "type": "string"
        }
      ],
      "name": "getTransaction",
      "outputs": [
        {
          "components": [
            {
              "internalType": "string",
              "name": "transactionId",
              "type": "string"
            },
            {
              "internalType": "address",
              "name": "verifier",
              "type": "address"
            },
            {
              "internalType": "uint256",
              "name": "amount",
              "type": "uint256"
            },
            {
              "internalType": "uint256",
              "name": "riskScore",
              "type": "uint256"
            },
            {
              "internalType": "uint256",
              "name": "timestamp",
              "type": "uint256"
            }
          ],
          "internalType": "struct TransactionLedger.Transaction",
          "name": "",
          "type": "tuple"
        }
      ],
      "stateMutability": "view",
      "type": "function"
    },
    {
      "inputs": [
        {
          "internalType": "string",
          "name": "_transactionId",
          "type": "string"
        },
        {
          "internalType": "uint256",
          "name": "_amount",
          "type": "uint256"
        },
        {
          "internalType": "uint256",
          "name": "_riskScore",
          "type": "uint256"
        }
      ],
      "name": "logTransaction",
      "outputs": [],
      "stateMutability": "nonpayable",
      "type": "function"
    },
    {
      "inputs": [
        {
          "internalType": "string",
          "name": "",
          "type": "string"
        }
      ],
      "name": "transactions",
      "outputs": [
        {
          "internalType": "string",
          "name": "transactionId",
          "type": "string"
        },
        {
          "internalType": "address",
          "name": "verifier",
          "type": "address"
        },
        {
          "internalType": "uint256",
          "name": "amount",
          "type": "uint256"
        },
        {
          "internalType": "uint256",
          "name": "riskScore",
          "type": "uint256"
        },
        {
          "internalType": "uint256",
          "name": "timestamp",
          "type": "uint256"
        }
      ],
      "stateMutability": "view",
      "type": "function"
    }
  ],
  "bytecode": "0x6080604052348015600f57600080fd5b50610d518061001f6000396000f3fe608060405234801561001057600080fd5b50600436106100415760003560e01c8063022236f4146100465780638fdb71c81461007a578063ac2ccd0714610096575b600080fd5b610060600480360381019061005b919061063e565b6100c6565b604051610071959493929190610760565b60405180910390f35b610094600480360381019061008f91906107e6565b6101ba565b005b6100b060048036038101906100ab919061063e565b610361565b6040516100bd9190610933565b60405180910390f35b6000818051602081018201805184825260208301602085012081835280955050505050506000915090508060000180546100ff90610984565b80601f016020809104026020016040519081016040528092919081815260200182805461012b90610984565b80156101785780601f1061014d57610100808354040283529160200191610178565b820191906000526020600020905b81548152906001019060200180831161015b57829003601f168201915b5050505050908060010160009054906101000a900473ffffffffffffffffffffffffffffffffffffffff16908060020154908060030154908060040154905085565b600080846040516101cb91906109f1565b9081526020016040518091039020600401541461021d576040517f08c379a000000000000000000000000000000000000000000000000000000000815260040161021490610a54565b60405180910390fd5b6040518060a001604052808481526020013373ffffffffffffffffffffffffffffffffffffffff1681526020018381526020018281526020014281525060008460405161026a91906109f1565b9081526020016040518091039020600082015181600001908161028d9190610c20565b5060208201518160010160006101000a81548173ffffffffffffffffffffffffffffffffffffffff021916908373ffffffffffffffffffffffffffffffffffffffff1602179055506040820151816002015560608201518160030155608082015181600401559050503373ffffffffffffffffffffffffffffffffffffffff168360405161031b91906109f1565b60405180910390207ffd060313493fb4c1f044069b59d95828c49c0394f5c3de1d162df0808d4a601d8442604051610354929190610cf2565b60405180910390a3505050565b61036961049f565b60008260405161037991906109f1565b90815260200160405180910390206040518060a00160405290816000820180546103a290610984565b80601f01602080910402602001604051908101604052809291908181526020018280546103ce90610984565b801561041b5780601f106103f05761010080835404028352916020019161041b565b820191906000526020600020905b8154815290600101906020018083116103fe57829003601f168201915b505050505081526020016001820160009054906101000a900473ffffffffffffffffffffffffffffffffffffffff1673ffffffffffffffffffffffffffffffffffffffff1673ffffffffffffffffffffffffffffffffffffffff16815260200160028201548152602001600382015481526020016004820154815250509050919050565b6040518060a0016040528060608152602001600073ffffffffffffffffffffffffffffffffffffffff1681526020016000815260200160008152602001600081525090565b6000604051905090565b600080fd5b600080fd5b600080fd5b600080fd5b6000601f19601f8301169050919050565b7f4e487b7100000000000000000000000000000000000000000000000000000000600052604160045260246000fd5b61054b82610502565b810181811067ffffffffffffffff8211171561056a57610569610513565b5b80604052505050565b600061057d6104e4565b90506105898282610542565b919050565b600067ffffffffffffffff8211156105a9576105a8610513565b5b6105b282610502565b9050602081019050919050565b82818337600083830152505050565b60006105e16105dc8461058e565b610573565b9050828152602081018484840111156105fd576105fc6104fd565b5b6106088482856105bf565b509392505050565b600082601f830112610625576106246104f8565b5b81356106358482602086016105ce565b91505092915050565b600060208284031215610654576106536104ee565b5b600082013567ffffffffffffffff811115610672576106716104f3565b5b61067e84828501610610565b91505092915050565b600081519050919050565b600082825260208201905092915050565b60005b838110156106c15780820151818401526020810190506106a6565b60008484015250505050565b60006106d882610687565b6106e28185610692565b93506106f28185602086016106a3565b6106fb81610502565b840191505092915050565b600073ffffffffffffffffffffffffffffffffffffffff82169050919050565b600061073182610706565b9050919050565b61074181610726565b82525050565b6000819050919050565b61075a81610747565b82525050565b600060a082019050818103600083015261077a81886106cd565b90506107896020830187610738565b6107966040830186610751565b6107a36060830185610751565b6107b06080830184610751565b9695505050505050565b6107c381610747565b81146107ce57600080fd5b50565b6000813590506107e0816107ba565b92915050565b6000806000606084860312156107ff576107fe6104ee565b5b600084013567ffffffffffffffff81111561081d5761081c6104f3565b5b61082986828701610610565b935050602061083a868287016107d1565b925050604061084b868287016107d1565b9150509250925092565b600082825260208201905092915050565b600061087182610687565b61087b8185610855565b935061088b8185602086016106a3565b61089481610502565b840191505092915050565b6108a881610726565b82525050565b6108b781610747565b82525050565b600060a08301600083015184820360008601526108da8282610866565b91505060208301516108ef602086018261089f565b50604083015161090260408601826108ae565b50606083015161091560608601826108ae565b50608083015161092860808601826108ae565b508091505092915050565b6000602082019050818103600083015261094d81846108bd565b905092915050565b7f4e487b7100000000000000000000000000000000000000000000000000000000600052602260045260246000fd5b6000600282049050600182168061099c57607f821691505b6020821081036109af576109ae610955565b5b50919050565b600081905092915050565b60006109cb82610687565b6109d581856109b5565b93506109e58185602086016106a3565b80840191505092915050565b60006109fd82846109c0565b915081905092915050565b7f5472616e73616374696f6e20494420616c7265616479206578697374732e0000600082015250565b6000610a3e601e83610692565b9150610a4982610a08565b602082019050919050565b60006020820190508181036000830152610a6d81610a31565b9050919050565b60008190508160005260206000209050919050565b60006020601f8301049050919050565b600082821b905092915050565b600060088302610ad67fffffffffffffffffffffffffffffffffffffffffffffffffffffffffffffffff82610a99565b610ae08683610a99565b95508019841693508086168417925050509392505050565b6000819050919050565b6000610b1d610b18610b1384610747565b610af8565b610747565b9050919050565b6000819050919050565b610b3783610b02565b610b4b610b4382610b24565b848454610aa6565b825550505050565b600090565b610b60610b53565b610b6b818484610b2e565b505050565b5b81811015610b8f57610b84600082610b58565b600181019050610b71565b5050565b601f821115610bd457610ba581610a74565b610bae84610a89565b81016020851015610bbd578190505b610bd1610bc985610a89565b830182610b70565b50505b505050565b600082821c905092915050565b6000610bf760001984600802610bd9565b1980831691505092915050565b6000610c108383610be6565b9150826002028217905092915050565b610c2982610687565b67ffffffffffffffff811115610c4257610c41610513565b5b610c4c8254610984565b610c57828285610b93565b600060209050601f831160018114610c8a5760008415610c78578287015190505b610c828582610c04565b865550610cea565b601f198416610c9886610a74565b60005b82811015610cc057848901518255600182019150602085019450602081019050610c9b565b86831015610cdd5784890151610cd9601f891682610be6565b8355505b6001600288020188555050505b505050505050565b6000604082019050610d076000830185610751565b610d146020830184610751565b939250505056fea2646970667358221220982344b9bce8b3a5b3e1a17e2417b2172736986c315475b45d9e2a9e27eb865664736f6c634300081c0033",
  "linkReferences": {},
  "deployedLinkReferences": {}
}